:100000000C94B7040C945B2E0C94FE040C94FE0428
:100010000C94FE040C94FE040C94FE040C94FE0458
:100020000C94FE040C94FE040C9432280C946E275D
:100030000C94C3210C94FE040C94FE040C94FE0456
:100040000C94FE040C94FE040C94FE040C94FE0428
:100050000C94FE040C94CA200C94FE040C94FE0430
:100060000C94FE040C94FE040C94FE040C94FE0408
:100070000C94FE040C94FE040C94FE040C94FE04F8
:100080000C94FE040C94FE040C94FE040C94FE04E8
:100090000C94FE040C94FE040C94FE040C94FE04D8
:1000A0000C94FE040C94FE040C94FE04880A880A46
:1000B000C10AC10A070B290B580CC90C360BAC0B33
:1000C000BE0BBE0B650C940C6D0C700C7B0C750C90
:1000D0007E0C8C119C11AC11BC11D511E511F511E0
:1000E00005121512251235124E125E126E127E1274
:1000F0008E12EC12F412FC125E1166117611CE1201
:100100009E12E41202111B1145111513151315133C
:100110001513151315131513BE12AE124C134C13F1
:100120005F135F1355135F135F135F134C134C136F
:100130005A135F135F135A138825AF255027AF2535
:100140005027FB251E265027132722272D3E00442B
:10015000454255473A2064697361626C65642E0AB2
:100160000044454255473A20656E61626C65642ED5
:100170000A006B636F6D626F3A2030782530345817
:100180002C20707265737365643A2025620A000042
:10019000000000000000000000000000000000005F
:1001A000000000000000000000000000000000004F
:1001B0000000007E0F00D4FFFFFFC70000007800A2
:1001C000000000000000002A2B28000000000000B2
:1001D0000000000000000000000029000000002CCA
:1001E0001E3420212224342627252E362D37382769
:1001F0001E1F202122232425263333362E37381F75
:100200000405060708090A0B0C0D0E0F1011121336
:100210001415161718191A1B1C1D2F3130232D35D4
:100220000405060708090A0B0C0D0E0F1011121316
:100230001415161718191A1B1C1D2F3130354C11A7
:10024000710B000C64000018000872000009001611
:100250006200000F001171000011710B0000000717
:1002600000176100001300176100000255125500CD
:100270000018001C00330000001C003300000018B0
:10028000001C0000001A00046800000E00050000B9
:10029000004C001761000014000E0000000B001954
:1002A0000000000D00180000002A000C6417610017
:1002B000002A000700117100002A00176116620071
:1002C000002A000E0000002A00140000002A001777
:1002D00061046800002A000C64166200002A000C09
:1002E0006400002A00127800002A000A0000002A98
:1002F00000100000002A00176100002A000B000017
:10030000002A00090000002A001A0000002A00113B
:100310007100002A00046800002A00180000002A6A
:10032000000872190000001C011D01F900FA003DCF
:10033000003E002B0014001A0009001300050029DC
:100340000004681564166217610A0039441D001B19
:1003500000060007001900000000002F00300039DF
:1003600044000000000000025565002C002B4233C1
:100370000034002F003500430044000D000F00182A
:10038000001C0033002D001000117108720C641263
:100390007834000E000B00360000573100380000A2
:1003A000002841E30035000000000052002A0051FF
:1003B0000012550000000045003A003B003C003DA3
:1003C000003E0037001E001F0020002100220035E3
:1003D000021E021F02200221022202010001002F40
:1003E0000033003400010000000000010001007330
:1003F0004200000000000001000100010001003F78
:100400000040004100420043004400230024002536
:1004100000260027002D002302240225022E002E94
:100420000235000100650001003700305D01000069
:100430000001002F5D2E5D0000000001000651014B
:100440000006510000000045003A003B003C003D22
:10045000003E00010001005300470049000100393F
:1004600044E300E200E100E00003510100335D04D9
:100470000106011901010000000000010001000156
:100480000000000000000001000100010001003F29
:10049000004000410042004300440001004B005274
:1004A000004E000100A8004A00500051004F004DCE
:1004B00000A900010046002F0230024900AA0000F6
:1004C000000100BE00BD0000000000010006510157
:1004D00000065100000000010001000100010001C0
:1004E0000001000100010001000100010001000104
:1004F00000010001000100010001000100010001F4
:1005000000010001000100000000000100010001E5
:1005100000000000000000010001000100010001D6
:100520000001000100010001000100010001002B99
:100530005D0100010001002C5D01002A5D01002D1C
:100540005D01000100010001000100010001000047
:100550000001000100010000000000010001000195
:100560000001000000000001000100010001000185
:100570000001000100010001000100010001000173
:1005800000E300E200E100E00001000100010001E1
:100590000001000100010000000000010001000155
:1005A0000000000000000001000100010001000146
:1005B00000010001000100010001000100B600F08F
:1005C00000B700010001000100F200F100F300019A
:1005D0000001000100F600FA00F90001000100002E
:1005E00000F6000100010000000000F5000100F429
:1005F0000001000000000029001E001F0020002153
:100600000022002B0014001A00080015001700E15A
:100610000004001600070009000A00E0001D001B8E
:1006200000060019000500000000002F0030000542
:10063000000000000000002C002B00110006002329
:100640000024002500260027002A001C0018000CAA
:1006500000120013002D000B000D000E000F0033E0
:10066000003400110010003600370038003100005F
:10067000004C002E022E00000000002A00E20005BF
:1006800053E300000000000100010001000100012F
:100690000001000100010001000100010001000152
:1006A0000001000100010001000100010001000142
:1006B0000001000100005C000000000100010001D9
:1006C0000000000000000001000100010001000125
:1006D0000001000100010001000100010001000112
:1006E0000001000100010001000100010001000102
:1006F00000010001000100010001000100010000F3
:1007000000010001000100000000000100010001E3
:10071000000100000000000A002530325820006B64
:100720006579626F6172645F7265706F72743A208E
:1007300000290A002575002F002575005D28002579
:10074000640020002564002000256400200025644A
:10075000007C0025303258006D6F7573656B6579CC
:10076000205B62746E7C782079207620685D287228
:1007700065702F61636C293A205B000631FF0974B4
:10078000A1010975150026FF009520750881020951
:1007900076150026FF00952075089102C005010915
:1007A00002A10185020901A1000509190129051508
:1007B00000250195057501810295017503810105EB
:1007C00001093009311581257F95027508810609D7
:1007D000381581257F950175088106050C0A3802B8
:1007E0001581257F950175088106C0C00501098026
:1007F000A101850319012AB700150126B70095014B
:1008000075108100C0050C0901A101850419012A98
:10081000A002150126A002950175108100C00501F6
:100820000906A101050719E029E71500250195082A
:10083000750181029501750881010507190029FFDD
:10084000150026FF00950675088100050819012985
:1008500005950575019102950175039101C05B43F2
:100860005D005B445D005B535D005B575D005B5268
:100870005D0009025B00030100A0FA090400000109
:100880000301010009211101000122400007058137
:100890000308000A090401000103000000092111F6
:1008A0000100012281000705820320000A090402D9
:1008B00000020300000009211101000122220007AB
:1008C0000583032000010705030320000112011026
:1008D00001000000084D4436350200010200012CE1
:1008E00003440061006300740079006C002D004D2A
:1008F0000061006E00750066006F0072006D0020E0
:10090000002800350078003600290000000E03742E
:1009100000730068006F0072007400000004030997
:10092000040A0025303862003A2000253032580091
:100930000A722F632030313233343536370A000AD9
:100940000025303258006B6579626F6172645F73A5
:1009500065745F6C65643A20005B735D004B65797C
:10096000626F6172642073746172742E0A001124C4
:100970001FBECFEFDAE0DEBFCDBF04B603FE27C057
:100980008091AC059091AD05A091AE05B091AF05F9
:100990008730904BA740B04BD1F41092AC05109229
:1009A000AD051092AE051092AF0514BE84B7877FD7
:1009B00084BF0FB6F894A8958091600088618093F9
:1009C0006000109260000FBEE0E0F8E3099525E0BA
:1009D000ACE3B4E001C01D92AC3AB207E1F714E019
:1009E000A0E0B1E0EEEEFEE502C005900D92AC3362
:1009F000B107D9F70E94AF2A0C94752F0C94000010
:100A0000FF93EF93E0913C04F0913D04309709F09F
:100A10000995EF91FF910895FC018591803011F0C7
:100A2000EFDFFBCF0895FF27E0E230E247FF0CC085
:100A3000419597FF09C0EDE260957095809590957E
:100A4000611D711D811D911D27FF02C0219530E39D
:100A500050E2AA27660F771F881F991FAA1FA417A5
:100A600010F0A41B63955A95A9F7AA3008F0A95F66
:100A7000A05DAF93F395611571058105910541F76F
:100A8000ED3211F4EF93F395F21718F43F93F395C9
:100A9000FBCF8F91B5DFFA95E1F70895E991F991D0
:100AA0008591803021F0853219F0AADFF9CF0895C1
:100AB00020E0E89455915532C1F3503311F4689415
:100AC00055915A3348F4505390F3220F022E220FBF
:100AD000220F200D250FF4CF0EF4219589919991C5
:100AE000533619F3533729F1533559F1BC0188278F
:100AF0009927E8945C3621F48991999168945591ED
:100B0000543639F446EF7EF077FF0DC08FEF9FEF3C
:100B10000AC055374AE039F0583540E121F05236E5
:100B200042E009F00895FF93EF937DDFEF91FF918D
:100B3000B7CFFF93EF93FC0181918030B9F360DF71
:100B4000FBCFFF93EF9368DFF1CFDF93CF93CDB768
:100B5000DEB72596A3DFCF91DF910895BF92CF92A4
:100B6000DF92EF92FF920F931F93CF93DF937C015D
:100B7000DC0113964D915C91149711966C9111972D
:100B80008C910E944324811165C761E0C7010E94D6
:100B9000D90FEC01F7018281811105C080913F04DA
:100BA00081113BC07EC080912C018F3FB9F300E0E2
:100BB00011E0C12CD12CBB24B39480912C01082EC0
:100BC000000C990B8C159D054CF3D80116968C9151
:100BD00016978823E1F019968D919C911A97C81762
:100BE000D90739F48091420490914304C817D9077A
:100BF00071F0F801B786D487C3878189811103C05A
:100C0000C8010E948618C80106960E94A718FFEF27
:100C1000CF1ADF0A0A5E1F4FD0CFC11520E4D207DA
:100C200080F0C11530E5D30728F0CE01905681152C
:100C3000904238F4F7018581807F99F1CE019927A0
:100C400001C0CE018D329105F1F0D70112962C91A1
:100C50008E32910548F48430910508F18E3191056A
:100C600078F08A97E1F40FC08D32B2E09B0759F01B
:100C70008433EDE59E0739F08337910581F403C095
:100C800021110E949710D70112968C91882349F068
:100C900080915F058D7F29F00E948D1002C0211187
:100CA000FBCF80915F058093410490915E05909306
:100CB0004004CD32BDE5DB0709F445C1D0F4C932AB
:100CC000FDE5DF0709F4A1C048F4CA32D105F1F10E
:100CD000C33732E4D30709F476C188C1D70112962D
:100CE0008C91CB32BDE5DB0709F411C108F403C1D7
:100CF0001EC1C133FDE5DF0709F46DC058F4D7010B
:100D000012968C91CF32BDE5DB0709F42AC108F4B5
:100D100035C143C1C333FDE5DF0709F449C108F418
:100D200041C0C4333DE5D30709F060C1D701129635
:100D30008C91882309F4A9C180913F04882319F07C
:100D40000E948D1066C60E94971063C6F7019281BB
:100D50009923E9F0982F927209F497C191E081FBF1
:100D6000222720F9292785FB882780F9892728173A
:100D700019F082E20E94A6228CE40E944B1781E0C7
:100D800080933E048091410480935F0542C6809128
:100D90003E04882309F479C18CE40E94EB1610927A
:100DA0003E0437C6D70112968C91882309F431C6C8
:100DB00082E20E94A6220E946E2485E394E10E94B2
:100DC0004A108091410480935F05809140040E9405
:100DD000A02284E017C0F7018281882309F419C694
:100DE00082E20E94A6220E946E2485E394E10E9482
:100DF0004A108091410480935F05809140040E94D5
:100E0000A02288E00E94EF1704C6D70112962C9109
:100E1000222309F43AC1892B827239F43CE4C32EAF
:100E200031E0D32E4AE0B42E22C082E20E94A622F4
:100E30000E946E2485E492E00E947E0F809141041E
:100E400080935F0522C1813009F051C086010F5F98
:100E50001F4FF8018491813079F40F5F1F4FF80123
:100E600084910E94EF176801BFEFCB1ADB0AF601ED
:100E700084918111E8CF09C1823041F486010E5F6F
:100E80001F4FF80184910E944B17EDCF833041F43E
:100E900086010E5F1F4FF80184910E94EB16E3CF8D
:100EA000843009F786010E5F1F4FF801249180E01E
:100EB00090E030E0205331092A30310568F4B89EC3
:100EC000A001B99E500D1124C901840F951F0F5F19
:100ED0001F4FF8012491EDCF009709F4C4CFAFE97B
:100EE000BFE01197F1F700C000000197F5CF0E9415
:100EF000180F8601B8CF882329F08AE00E944B178B
:100F000081E50BC08AE00E94EB1681E50DC08823C5
:100F100039F08AE00E944B1782E50E944B17B5C05A
:100F20008AE00E94EB1682E50E94EB16AEC0882391
:100F300029F08AE00E944B178AE4EFCF8AE00E94F2
:100F4000EB168AE4F1CFF7018281882329F08AE049
:100F50000E944B178DE4E1CF8AE00E94EB168DE4EE
:100F6000E3CF882309F491C085E60E94EF1786E35A
:100F700092E00E944A1086E392E00CC0882309F4B4
:100F800084C085E60E94EF1787E392E00E944A1032
:100F900087E392E00E944A1078C0882309F475C064
:100FA00087E30E94EF1787E30E94EF1788E32ACFB9
:100FB000D70112968C91882309F467C088E492E0E7
:100FC0000E947E0F26C5F701858182958F7009F4F6
:100FD0005CC08281882329F08DE292E00E94341067
:100FE00018C58DE292E00E941E1013C5CE019755E0
:100FF0008F3F910511F008F048C020912C01022E7E
:10100000000C330B2817390714F480932C01D701F7
:1010100012962C91129736E1389F6001399FD00CBF
:101020001124860100501F4FF801208B12969C91CD
:101030008681992309F49FC1D287C1878F5F8683F8
:101040000E940B21D8011E969C938E931D97809130
:101050005E0517968C93179790913E0580915F05DA
:10106000892B18968C931897ED91FC911197C601D6
:101070008A5F9E4F309729F054966D917C915597D9
:101080000995D0934304C0934204C43FFCE5DF07B5
:1010900041F190F4C93D3CE5D307E9F0CA3D8CE548
:1010A000D80789F1C83D9CE5D907B1F506E221EEE4
:1010B00041EE68ED7CE52CC0C63FACE5DA07E9F00F
:1010C000B0F0C73FECE5DE0739F507E225EE46EE66
:1010D00067EF7CE51DC007E225EE45EE69ED7CE596
:1010E00017C006E221EE40EE64EF7CE511C007E296
:1010F00025EE44EE65EF7CE50BC006E221EE42EE04
:1011000066EF7CE505C008E221E045EE6AED7CE58E
:10111000C7010E94F2187DC4D70112969C919923B1
:1011200009F44DC110924404C230BCE5DB0708F459
:1011300030C1C631ECE5DE0738F09E012B5F3C453F
:101140002930310508F025C10E94132290938005B3
:1011500080937F05C031FCE5DF0709F4C3C008F0C8
:1011600041C0C8303CE5D30709F49AC0F0F4C4305C
:101170009CE5D90709F487C068F4C230BCE5DB07F9
:1011800009F477C0C330DC4509F0E5C080917F05E4
:10119000826076C0C630FCE5DF0709F46EC008F057
:1011A0007BC080917F0588606BC0CC303CE5D30765
:1011B00009F485C068F4CA309CE5D90709F474C005
:1011C00008F079C00E94591680917F05806858C048
:1011D000CE30BCE5DB0709F476C008F07FC0809113
:1011E0007F058BC0CC3FFCE5DF0709F44FC018F545
:1011F000C3313CE5D30709F47DC078F4C1319CE5E7
:10120000D90709F473C0C231DC4509F0A4C00E94BB
:10121000591680917F058F7733C0C531BCE5DB0758
:1012200009F472C008F486C0CB3FDC4509F093C0D6
:10123000809180053EC0C1152DE5D20709F45FC03D
:1012400058F4CE3F8CE5D80709F444C008F43FC0F9
:101250008091800582602DC0C230ADE5DA0709F4C7
:1012600075C008F45DC0C330DD4509F074C060E0AE
:101270006EC080917F05816003C080917F05806191
:1012800080937F0568C080917F0511C080918005A3
:101290008260809380055FC080917F058062F0CF7F
:1012A00080917F058064ECCF80917F0588608460A9
:1012B000E7CF8160EECF80917F058E7FE1CF809177
:1012C0007F058D7FDDCF80917F05877FD9CF80918E
:1012D000800518C0809180058D7FDBCF80917F05D0
:1012E0008F7ECECF80917F058F7DCACF80917F0585
:1012F0008F7BC6CF80917F05877F8B7FC1CF809109
:1013000080058D7F8E7FC5CF80917F0582FB222750
:1013100020F991E0922790FB82F990FB83F9B0CFFE
:1013200080918005982F909591708E7F892B90FBEE
:1013300081F9AFCF0E94591680917F0587FB222744
:1013400020F991E0922790FB87F99ACF61E08EE037
:1013500090E00E94072F60917F05C091800584E096
:1013600090E00E94072F6C2F81E290E00E94072FEF
:101370000E9459164EC3882309F487CEF80181894B
:10138000882309F482CEC6018A5F9E4F0E94A71867
:101390007CCEC631FCE5DF0711F580915F058A7AC6
:1013A00091E009F490E090934504882311F065E3FF
:1013B00001C069E287ED94E00E94F9210DC0C631B9
:1013C000DC45E1F580914504882309F441C365E3D8
:1013D00087ED94E00E94EC210E94AD221AC3C13037
:1013E000FCE5DF07A9F0CF3D2CE5D20721F1C115BF
:1013F000DC4521F50E9459168FEF94E3ACE0815053
:101400009040A040E1F700C000000E94B92001C355
:1014100080919D05982F9095917090FB80F9809315
:101420009D05992319F081E691E002C08FE491E0D7
:101430000E940C05EEC20E942422EBC2D701169630
:101440002D913C9117972115310511F0C90126C046
:10145000D701DC9111961C918D2F992351F0912F7A
:101460000E941723C82F682F8D2F912F0E94AD2324
:1014700004C0912F0E948023C82FB8E4CB9FF001B5
:10148000112426E0129FE00DF11D1124ED0FF11D36
:10149000EE0FFF1FE95DFC4F859194910E947D0D39
:1014A000C82F192FD70115960C91159702950F701B
:1014B0001296DC91D11110923E0580913C05877007
:1014C000B9F0DD23A9F0812F807F803441F090E2D4
:1014D0009C0F983068F0803611F4C63F49F082E0E6
:1014E0000E94EE2380913C058770DD24D394811106
:1014F000D12CB12EB2949FE0B9228B2D90E08C308C
:10150000910508F046C2FC01EA5AFF4F0C945B2F8C
:10151000012F0F70812F807F11F00295007FDD2356
:10152000B9F0002309F4B1C180E28C0F883010F0CB
:10153000C11106C080915F05082B00935F0505C0AF
:1015400080913E05082B00933E050E94AD229DC16F
:101550008C2F0E94EB16002309F46FC280E28C0FDF
:10156000883010F0C11104C0802F0E94A62206C04E
:10157000009580913E05082300933E050E94AD2210
:101580005CC2912F9F70812F807FC92E803219F00D
:10159000C29480EFC822CC2319F0C130A9F01EC03C
:1015A000DD2351F080915E058C290023E1F00130AC
:1015B000D1F40E94A02246C2002319F0013009F4A0
:1015C0003CC20E949A221FC0DD2321F0043008F0A3
:1015D00039C208C0033008F030C215C0DD2331F035
:1015E000011153C18C2D0E9478132CC2002359F095
:1015F000C93309F059C1BFEFE7EEF3E0B150E04065
:10160000F040E1F74FC18C2D0E94821316C2812F4A
:1016100086958695837019F0813071F0BAC1DD230B
:1016200031F08C2F912F93700E945718BAC180E02F
:1016300090E00E945718C9C1DD2331F08C2F912F03
:1016400093700E944118ADC180E090E00E94411863
:10165000BCC18C2FDD2329F00E9451200E9417214C
:10166000A0C10E94871F0E941721AFC1812F8370E4
:10167000B1F5D11192C14C2F429546954770440F58
:10168000440F8C2F8F7090E09C01042E01C0220F1C
:101690000A94EAF7C4FF08C08FE090E001C0880F09
:1016A0004A95EAF7809501C080E0412F469546951E
:1016B0004370423069F088F490913F05413019F051
:1016C000822B892302C0922B892B0E941F2465C183
:1016D000822B90913F058927F8CF822BF6CFDD230F
:1016E00019F0812F817001C08695882309F455C1B6
:1016F0004C2F429546954770440F440F8C2F8F70A6
:1017000090E09C01042E01C0220F0A94EAF7C4FF66
:1017100008C08FE090E001C0880F4A95EAF78095F5
:1017200001C080E0412F469546954370423059F004
:1017300078F490917E05413019F0822B892309C0FD
:10174000922B892B06C0822B90917E05892701C0A0
:10175000822B0E94D92321C1012F0F70DD2339F084
:10176000802F0E9407248C2F0E94781316C18C2F83
:101770000E948213802F0E94DD230FC1C23F09F413
:1017800045C028F4C03F51F0C13F91F136C0C33F7E
:1017900009F446C0C43F09F459C02FC0DD23A1F0AD
:1017A000033008F04FC1212F2F7181E090E0A0E0BD
:1017B000B0E004C0880F991FAA1FBB1F2A95D2F75B
:1017C00020917E0582273BC0043008F036C1212FCE
:1017D0002F7181E090E0A0E0B0E004C0880F991F75
:1017E000AA1FBB1F2A95D2F720917E0582272BC006
:1017F000DD2339F0812F8F7138C0D11143C0011121
:1018000048C0812F8F710E94DD2317C1812F8F71F6
:10181000DD2319F00E94DD2315C10E9407240DC1AC
:10182000DD2381F0212F2F7181E090E0A0E0B0E076
:1018300004C0880F991FAA1FBB1F2A95D2F70E94C8
:10184000D92300C180E00E94D923F7C0DD2381F0B5
:10185000012F0F71802F0E94072428E0029FC001F2
:101860001124836080933C05802F0E940724EAC0E6
:1018700081E00E94EE23023008F4DFC082E00E9483
:10188000EE23DBC0002309F4B5CF8C2F0E944B1749
:10189000D9C0C93349F43FEF87EE93E0315080401F
:1018A0009040E1F700C000008C2F0E94EB16C5C0ED
:1018B0008C2F90E0FC01E05FF109E730F10508F0C2
:1018C0003FC0EE59FF4F0C945B2FDD2309F47DC020
:1018D0009091480481E0892705C0D09348045FC0F7
:1018E00081E08D27809348045AC0D11158C081E00F
:1018F000809348046AC0D11152C065C0DD2339F01D
:1019000082E08093460481E0809348044AC080913D
:101910004604823019F481E08093460480914604A5
:10192000833009F052C04DC0DD2339F08091470467
:10193000882371F21092470434C0033048F245C046
:10194000809147040023C1F0882341F0909148041E
:1019500081E0892780934804109247048C2FDD236F
:1019600019F00E944B171DC00E94EB1688E0D701AA
:101970001D928A95E9F729C0882389F0D1110FC0FB
:101980009091480481E0892780934804109247048D
:101990001CC088EF8B0D843010F40E947A18DD2370
:1019A000A1F0107F103611F4C63F79F08091460403
:1019B000823019F483E0809346048091460481309C
:1019C00021F41092460410924804DD20A9F0809181
:1019D0003C0580FD11C0F70112828595859585959E
:1019E0000E940724C7010E94AE0580913C058595A1
:1019F000859585950E94DD2360E0C701DF91CF9139
:101A00001F910F91FF90EF90DF90CF90BF900C94BB
:101A1000D90F80913C058770E9F0F7018281882316
:101A2000C9F082E0DF91CF911F910F91FF90EF906D
:101A3000DF90CF90BF900C94EE2388EF8B0D843015
:101A400020F6ABCF88EF8B0D843008F0AACFA5CF5E
:101A500069E2BECCDF91CF911F910F91FF90EF9083
:101A6000DF90CF90BF9008959C013A9521153F419A
:101A700038F5DC01AA27B270AC01442754709C01F0
:101A80002227387094FF0FC090FF02C080E101C090
:101A900080E0AB2B09F08062452B09F08064232B9A
:101AA00069F080680BC0892F8170AB2B09F08260D0
:101AB000452B09F08460232B09F08860FB01099411
:101AC0000895FC018081823049F0833099F48AE2E4
:101AD0000E94EF1787E30E94EF170CC080915F050B
:101AE000827241F48CE20E94EF1780915E05826061
:101AF0000C94A02287E30C94EF17CF93DF938238E6
:101B0000910569F1B0F48133910509F46FC048F48F
:101B10008932910509F465C08A32910509F46BC0D8
:101B20008AC08533910509F457C089339105B9F00E
:101B300082C0833E910571F138F4803E9105B1F089
:101B4000823E910511F177C0863E9105B9F1873E3D
:101B50009105C9F1843E910509F06DC024C0209122
:101B60007F0520FD53C021FD51C065C080917F05D8
:101B700080FD46C08091800580FF48C080917F0530
:101B800084FD51C183EE90E050C180917F0582FFBA
:101B90003AC0F4CF80917F0582FD35C080918005E9
:101BA00080FD34C0EBCF8091800581FF35C08091EE
:101BB0007F0584FD38C187EE90E037C180917F05B5
:101BC00083FF27C0F4CF80917F0583FD22C08091E1
:101BD000800581FD21C0EBCF80917F0585FD1FC071
:101BE00021C080917F0585FD1DC019C080917F05B2
:101BF00086FD1BC01DC080917F0586FD19C015C0E4
:101C000089E390E012C182EE90E00FC180EE90E097
:101C10000CC186EE90E009C184EE90E006C189E235
:101C200090E003C185E390E000C18AE290E0FDC04E
:101C300081E390E0FAC0811532E5930708F072C0A5
:101C4000811541E5940728F0982F8827816F906AC5
:101C5000ECC0883E910568F5803E910508F0E5C02E
:101C6000883A9105B8F4853A910548F0855AE82FED
:101C7000F0E0E65AFC4F808190E09064D6C081305D
:101C8000910509F4CDC008F4CEC08430910508F464
:101C9000CAC0CBC08F3B910508F0C5C0885AE82F59
:101CA000F0E0EE0FFF1FE35AFC4F808191819464B6
:101CB000BCC0811520E2920758F4811531E09307EA
:101CC00008F0B3C0803F910508F4ADC09065ADC089
:101CD000811540E4940708F4A6C0811520E5920719
:101CE00018F49F70906AA1C09C0174E03695279506
:101CF0007A95E1F7922F9370482F437021E030E0FE
:101D000002C0220F331F4A95E2F73C68392B8F70CF
:101D1000982F9695969540E2949FC0011124822BAE
:101D2000932B83C0EC01811536E59307E0F581150F
:101D3000954548F08C2F0E94BE198F7190E0982F26
:101D40008827906272C0C11584E5D80728F09C2FBF
:101D50008827846F906A69C0AE01437055272C2F85
:101D600026952695C115D34578F481E090E002C010
:101D7000880F991F4A95E2F740E2249F90011124B1
:101D8000822B932B9C6851C081E090E002C0880FA9
:101D9000991F4A95E2F740E2249F90011124822B7B
:101DA000932B9A6842C081154AE59407F8F4C1154F
:101DB00089E5D80790F08C2F8F700E94BE1994E0AF
:101DC000D695C7959A95E1F7CF70D0E0DC2FCC2758
:101DD000D0699E01282BC90128C0C11528E5D2076A
:101DE00010F19C2F8827806F906A1FC081153BE5FA
:101DF0009307C8F081154CE5940718F4992790666D
:101E000014C090568115904270F48D2F8F710E94EE
:101E1000BE19282F2F71CE0199279062922B05C0F1
:101E200081E090E002C080E090E0DF91CF910895E2
:101E3000DF92EF92FF920F931F93CF93DF93E82FE0
:101E4000F0E0E154FE4FD490282F26952695269554
:101E500030E0F901E155FE4F0491877010E0082E43
:101E600002C0159507950A94E2F701701127F90150
:101E7000E156FE4FE490F12C082E02C0F594E79451
:101E80000A94E2F791E0E922FF24F901E157FE4FBD
:101E9000C491D0E002C0D595C7958A95E2F7C1708C
:101EA000DD270115110519F081EE0E944B17E11491
:101EB000F10419F086EE0E944B178D2D0E94EF174A
:101EC000EF2819F086EE0E94EB16012B19F081EE37
:101ED0000E94EB16CD2B51F08CE2DF91CF911F9138
:101EE0000F91FF90EF90DF900C94EF17DF91CF915F
:101EF0001F910F91FF90EF90DF900895EF92FF9266
:101F00001F93CF93DF93EC011AE08881882309F4B3
:101F10004AC0813009F043C08981813041F47E019B
:101F200082E0E80EF11C8A810E94EF1709C082301E
:101F300049F47E01E2E0EE0EF11C8A810E944B170B
:101F4000E7012FC0833041F47E01F2E0EF0EF11C77
:101F50008A810E94EB16F4CF843011F0219621C0C3
:101F60002A81229680E090E030E0205331092A3027
:101F7000310558F4189FA001199F500D1124C90173
:101F8000840F951F21962881EFCF009751F0EFE93C
:101F9000FFE03197F1F700C000000197F6CF0E94F3
:101FA000180F2196B2CFDF91CF911F91FF90EF9044
:101FB00008951F93CF93DF9300D000D01F92CDB729
:101FC000DEB7FC0186819781009779F5CF0125E086
:101FD000DE01119601900D922A95E1F7FC01228114
:101FE00089819A81222359F0662349F00E941723A0
:101FF000182F682F89819A810E94AD2303C00E9407
:102000008023182F8A8198E4199FF001112496E00B
:10201000899FE00DF11D11248981E80FF11DEE0F5C
:10202000FF1FE95DFC4F859194910F900F900F90E9
:102030000F900F90DF91CF911F910895CF93DF9371
:10204000EC010E94EB16CE01805E9109089710F01A
:10205000209719F462E873E102C063E673E1CE01F0
:10206000DF91CF910C94340DCF93DF93EC01805E20
:102070009109089710F0209719F468E773E102C0FE
:102080006EE673E1CE010E94340D8C2FDF91CF916B
:102090000C944B17CF93DF93EC010E943410CE01C8
:1020A000DF91CF910C941E10FC018081813039F4B6
:1020B000818581110CC08285813021F40BC0823072
:1020C00061F00895813018F0823039F0089586E08B
:1020D00091E005C084E091E002C089E191E00C94B8
:1020E0004A10863122E6920779F030F48832914422
:1020F00071F489E690E00895883022E7920721F094
:102100008231984739F003C084EB90E008958AEA61
:1021100090E008958EEB90E0089510923F040E94A5
:102120006D1881FF03C089E30C94EF17089581E0D7
:1021300080933F040E946D1881FD03C089E30C94D5
:10214000EF170895AF92BF92CF92DF92EF92FF9276
:102150000F931F93CF93DF93CDB7DEB728970FB6BA
:10216000F894DEBF0FBECDBF5C01162FFE01319685
:1021700088E0DF011D928A95E9F729813A814B8138
:102180005C816D817E818F8198850E94641680912B
:102190005F058093410400E027E02A9DC0012B9D4C
:1021A000900D1124FC01E25DFE4F7F0182E7C82EF5
:1021B00081E0D82ED7019C9111968C91E92FF82FB0
:1021C000E00FF11DE00FF11D85919491009781F0D2
:1021D0001F921F939F938F93DF92CF920E94A5052A
:1021E0000F5F0F900F900F900F900F900F90E2CF16
:1021F000B5E2AB16B10408F018C2F501E759FF4F7C
:102200000C945B2F112309F410C280914104982F84
:10221000927231F082E20E94A6228DE492E0CAC15D
:10222000817131F081E10E94A6228BE492E0C2C16B
:102230008FE492E018C0112309F4F7C180914104A2
:10224000982F927231F082E20E94A6228BE592E0F2
:10225000B1C1817131F081E10E94A62281E592E055
:10226000A9C183E592E028960FB6F894DEBF0FBEB1
:10227000CDBFDF91CF911F910F91FF90EF90DF9035
:10228000CF90BF90AF900C947E0F112309F4CDC175
:1022900080914104982F927231F082E20E94A6222E
:1022A00085E592E087C1817131F081E10E94A6222B
:1022B00089E592E07FC18DE592E0D5CF2091410480
:1022C000412F61E672E086E692E09DC1112309F498
:1022D000ACC180914104827231F082E20E94A62258
:1022E0008BE692E067C180E792E0BDCF112309F44D
:1022F0009CC180914104827221F4809140048272D9
:1023000041F082E20E94A6220E946E2485E792E0BC
:1023100051C189E792E0A7CF112309F486C18091CA
:102320004104827231F082E20E94A6228DE792E09F
:1023300041C183E892E097CF112309F476C18091DF
:102340004104827231F082E20E94A62289E892E082
:1023500031C18DE892E087CF112309F466C18091E5
:102360004104827231F082E20E94A62281E992E069
:1023700021C185E992E077CF112309F456C18091FC
:102380004104982F927231F082E20E94A62289E9DC
:1023900092E010C1817131F081E10E94A62282E4B5
:1023A00093E008C18DE992E05ECF112309F43DC1AD
:1023B00080914104827231F082E20E94A62281EA79
:1023C00092E0F8C086EA92E04ECF112309F42DC1C5
:1023D00080914104827231F082E20E94A6228BEA4F
:1023E00092E0E8C08FEA92E03ECF112309F41DC1CC
:1023F00080914104827231F082E20E94A62283EB36
:1024000092E0D8C088EB92E02ECF112309F40DC1E1
:1024100080914104827231F082E20E94A6228DEB0B
:1024200092E0C8C08FE493E01ECF112309F4FDC0F1
:1024300080914104827231F082E20E94A62281ECF6
:1024400092E0B8C086EC92E00ECF112309F4EDC003
:1024500080914104827231F082E20E94A6228BECCC
:1024600092E0A8C08FEC92E0FECE112309F4DDC00B
:1024700080914104982F917131F081E10E94A62250
:1024800083ED92E097C0827231F082E20E94A62230
:1024900088ED92E08FC08DED92E0E5CE112309F436
:1024A000C4C080914104827231F082E20E94A6226F
:1024B00082EE92E07FC086EE92E0D5CE112309F441
:1024C000B4C080914104827231F082E20E94A6225F
:1024D0008AEE92E06FC08FEE92E0C5CE112309F430
:1024E000A4C080914104827231F082E20E94A6224F
:1024F00084EF92E05FC089EF92E0B5CE112309F43A
:1025000094C080914104827231F082E20E94A6223E
:102510008EEF92E04FC082E093E0A5CE112309F444
:1025200084C080914104827231F082E20E94A6222E
:1025300086E093E03FC08AE093E095CE112309F452
:1025400074C080914104827231F082E20E94A6221E
:102550008EE093E02FC087E193E085CE112309F44C
:1025600064C080914104827231F082E20E94A6220E
:1025700080E293E01FC083E293E075CE112309F45B
:1025800054C080914104827231F082E20E94A622FE
:1025900086E293E00FC089E293E065CE112309F44F
:1025A00044C080914104827261F082E20E94A622BE
:1025B0008CE293E00E947E0F8091410480935F053E
:1025C00034C081E393E04FCE20914104412F66E374
:1025D00073E08BE393E017C020914104412F6CE23C
:1025E00073E081E393E00FC020914104412F60E448
:1025F00073E086E493E007C020914104412F6CE42E
:1026000073E083E593E028960FB6F894DEBF0FBE23
:10261000CDBFDF91CF911F910F91FF90EF90DF9091
:10262000CF90BF90AF900C94522428960FB6F89498
:10263000DEBF0FBECDBFDF91CF911F910F91FF90F5
:10264000EF90DF90CF90BF90AF90089580912005DC
:102650009091DF04891719F08F5F8770FBCF089581
:10266000FC0186819781009719F00E947D0D04C0BE
:10267000808191810E946423292F2F70E92FE29598
:10268000EF704E2F50E0FA013297EE30F105B8F4BA
:10269000E257FF4F0C945B2F803F99F018F4883E6F
:1026A00070F40FC0843F59F40CC0883E50F0813F55
:1026B00031F407C0822F869586958695089580E02F
:1026C000089581E00895882341F0809590913E051A
:1026D000892380933E050C94AD220895882339F018
:1026E00090913E05892B80933E050C94AD22089570
:1026F000882339F090915F05892B80935F050C94B6
:10270000AD220895882321F00E94A6220C94AD22C8
:102710000895CF92DF92EF92FF920F931F93CF9382
:10272000DF9380914E0482958F7009F05CC0809198
:102730004B04882309F457C0C09120058091DF0421
:10274000C81709F450C0F0904904E0904A04C090C2
:102750004C04D0904D04A6016E2D8F2D0E94432471
:10276000D0E081113DC08E0183E0000F111F8A95DA
:10277000E1F7F801E052FB4F81818E1131C0808179
:102780008F112EC0828181112BC0E380F480EC1860
:10279000FD0860E089E494E00E94D90F69E474E0E8
:1027A0000E947110E816F906D8F480914E048F70DB
:1027B000806180934E04F801EB51FB4F80818F7054
:1027C0008061808389E494E00E94AE05DF91CF911F
:1027D0001F910F91FF90EF90DF90CF900C942613F4
:1027E0002196C770ABCFDF91CF911F910F91FF90D2
:1027F000EF90DF90CF9008954F925F926F927F920B
:102800008F929F92AF92BF92CF92DF92EF92FF9200
:102810000F931F93CF93DF93CDB7DEB765970FB6B6
:10282000F894DEBF0FBECDBF8C0185E0F801DE015C
:10283000519601900D928A95E1F7D8011296EC908D
:1028400089E4A82E84E0B82E80904C0490904D042A
:10285000A40160914A04809149040E944324F82E07
:102860008111C8C1F801C380D48040904B04C601D7
:10287000881999094C01442009F46DC15080618088
:1028800060E0C5010E94D90FB5010E9471107090DF
:102890004E048816990608F016C140914C045091D8
:1028A0004D04B0904904A0904A04872D807F6A2D82
:1028B00009F099C08B2D0E944324811124C0D801B6
:1028C00011968C9111978A111EC08C918B111BC08F
:1028D00020914F043091500416968D919C9117973A
:1028E0002817390781F4E1100EC0872D8F708061A1
:1028F00080934E0489E494E00E94AE0580914E04DA
:10290000F8018583A1C160E089E494E00E94D90FB9
:10291000B8010E947110843F914008F1A601662D14
:10292000852D0E944324811103C081E08E2502C0C1
:1029300080E090E080FF13C04E2D662D852D0E9413
:102940002324882361F089E494E00E94AE05E9E441
:10295000F4E088E0DF011D928A95E9F775C1A601D0
:10296000662D852D0E944324811103C081E08E25B0
:1029700002C080E090E0B82FB170CB2E80FF2AC05B
:102980004E2D662D852D0E942324D82E811122C024
:10299000598A6A8A89899A890E946423292F2295F3
:1029A0002F70223018F0243078F405C09F7049F061
:1029B000811107C00DC09F7021F0F8019581907FB3
:1029C00039F0805E883020F0C8010E94AE05DC2C12
:1029D000FD2C3AC1EE2009F436C180914E0481608D
:1029E00080934E0431C18B2D0E944324811124C059
:1029F000D80111968C9111978A111EC08C918B1160
:102A00001BC020914F043091500416968D919C91DB
:102A100017972817390781F4E1100EC015967C929C
:102A2000C8010E94AE0588E0F801A9E4B4E0019075
:102A30000D928A95E1F76FC0C8010E943013882378
:102A4000E1F1EE20D1F120914E04822F82958F701A
:102A500090E00297A4F08091490490914A049A87EB
:102A600089871B86DD86CC862E8780914F049091C6
:102A70005004988B8F87CE0109960E94AE0588E09E
:102A8000F801A9E4B4E001900D928A95E1F70E9463
:102A9000891316C0F090490490904A0440914C0468
:102AA00050914D04692D8F2D0E944324882399F065
:102AB000C8010E943013811130C0C8010E94AE05C8
:102AC000FF24F394C1C0872D807F21F789E494E02F
:102AD0000E94AE0589C0D80111968C911197891179
:102AE000E7CF8C918F11E4CF20914F0430915004A7
:102AF00016968D919C91179728173907C9F6E11002
:102B0000D7CF15967C92C8010E94AE0588E0F501EA
:102B100011928A95E9F7F42C97C0EE2071F220917A
:102B20004E04822F82958F7090E002970CF4A7CF0D
:102B30008091490490914A049A8389831B82DD82A3
:102B4000CC822E8380914F049091500498878F837C
:102B5000CE01019692CF60E089E494E00E94D90F03
:102B600069E474E00E94711088169906E8F5FE2C5D
:102B7000EE2009F4A2CFE0904904D0904A0440919D
:102B80004C0450914D046D2D8E2D0E9443248111D3
:102B90001DC0D80111968C9111978D1117C08C9181
:102BA0008E1114C020914F043091500416968D91CF
:102BB0009C9117972817390749F488E0F801A9E490
:102BC000B4E001900D928A95E1F73EC0C8010E94E1
:102BD0003013811154CF80914E04816080934E0454
:102BE000C8010E94AE0530C088E0F50111928A95B7
:102BF000E9F72AC0EE2009F460CFC8010E94301323
:102C0000F82E882309F459CF88E0F801A9E4B4E04C
:102C100001900D928A95E1F78091490490914A04C0
:102C20000E94642392959F70963051F4863F41F044
:102C30008091480491E08927809348049093470449
:102C40000E94891301C0F12C8F2D65960FB6F89460
:102C5000DEBF0FBECDBFDF91CF911F910F91FF90CF
:102C6000EF90DF90CF90BF90AF909F908F907F902C
:102C70006F905F904F90089510923E0510923D0521
:102C80000E94AD22E6E9F5E086E0DF011D928A951B
:102C9000E9F71092930510929005109244050E9456
:102CA000172180E090E00E94571880E090E00C949B
:102CB000411810925F0586E0E9EDF4E0DF011D9216
:102CC0008A95E9F70C943C16EF92FF920F931F93AD
:102CD000CF93DF93CDB7DEB760970FB6F894DEBF22
:102CE0000FBECDBF29873A874B875C876D877E876C
:102CF0008F87988BCE0109960E94FC1381114AC0E0
:102D000088E0FE013996DE01119601900D928A95B8
:102D1000E1F7E984FA840C851D85A8016F2D8E2DBD
:102D20000E944324811136C0A091DF04B0E0CD01A0
:102D30000196877099272091200530E0821793072C
:102D400081F1E982FA821D830C8393E0AA0FBB1FF5
:102D50009A95E1F7A052BB4F98E0FE0131960190A1
:102D60000D929A95E1F78093DF040E94261312C01A
:102D700028E0829FC001112480529B4F0E94FC13C7
:102D80008823E1F08091200590E0019687709927D3
:102D900080932005809120059091DF048913E8CF6E
:102DA0000DC00E9459161092DF0410922005E9E42C
:102DB000F4E088E0DF011D928A95E9F760960FB68E
:102DC000F894DEBF0FBECDBFDF91CF911F910F9161
:102DD000FF90EF900895882309F45CC0823869F46D
:102DE0000E947A1881FF56C069E387ED94E00E9443
:102DF000F9210E94AD2269E30EC0833891F40E944C
:102E00007A1880FF47C063E587ED94E00E94F921BE
:102E10000E94AD2263E587ED94E00E94EC210C94C2
:102E2000AD22843869F40E947A1882FF33C067E4C7
:102E300087ED94E00E94F9210E94AD2267E4EBCF78
:102E40009CEF980F913A10F4682FE5CF90E2980F1D
:102E5000983050F4877091E001C0990F8A95EAF795
:102E6000892F0E94A622DBCF9BE5980F933020F498
:102E700080E090E00C94571898E5980F973120F473
:102E800080E090E00C944118803F20F00E94871F62
:102E90000C9417210895CF93882309F49EC0C82F5E
:102EA0008238B1F40E947A1881FD97C069E387EDFA
:102EB00094E00E94F9210E94AD222FEF81EE94E070
:102EC000215080409040E1F700C0000069E317C046
:102ED0008338E1F40E947A1880FD7FC063E587EDB6
:102EE00094E00E94F9210E94AD222FEF81EE94E040
:102EF000215080409040E1F700C0000063E587ED7D
:102F000094E00E94EC21CF910C94AD228438B1F46E
:102F10000E947A1882FD61C067E487ED94E00E9408
:102F2000F9210E94AD222FEF81EE94E021508040E4
:102F30009040E1F700C0000067E4E1CF8CEF8C0F18
:102F4000813A80F4E9EDF4E08FED94E02191C2172D
:102F5000E1F18E179F07D1F76C2F87ED94E00E9467
:102F6000F921D1CF80E28C0F883068F4C77081E0FE
:102F700090E001C0880FCA95EAF790915F05892B10
:102F800080935F05C0CFEBE5EC0FE33040F4F0E059
:102F9000E65AFC4F808190E0CF910C945718E8E5F9
:102FA000EC0FE73150F4F0E0EE0FFF1FE35AFC4F57
:102FB00080819181CF910C944118C03F70F08C2F8B
:102FC0000E945120CF910C9417216C2F87ED94E033
:102FD0000E94EC210E94AD22BFCFCF910895CF93E4
:102FE000C82F0E944B17C93349F42FEF87EE93E0A7
:102FF000215080409040E1F700C000008C2FCF911D
:103000000C94EB16BC014091730480917204942FD0
:10301000981729F1292F30E0F901EE0FFF1FE85929
:10302000FB4F0190F081E02DE617F70799F487E058
:10303000869FF001879FF00D1124E25DFE4F81E035
:10304000848394130CC02F5F3F4F2370332720934A
:10305000730408952F5F3F4F922F9370D9CF089537
:103060001092710410927004EEE2F1E085818111FA
:1030700002C014821682379682E0E133F807B1F776
:10308000089520915A0430915B042817390771F094
:1030900090935B0480935A04E0918105F09182053E
:1030A000309721F00084F185E02D09940895209156
:1030B0005804309159042817390771F09093590436
:1030C00080935804E0918105F0918205309721F0BA
:1030D0000680F781E02D09940895E0918105F09133
:1030E0008205309711F480E008950190F081E02D81
:1030F00009950895E0918105F0918205309721F0BE
:103100000190F081E02D099480E00895CF93DF9342
:10311000EC0181E0898B90915F058F81892B8093F1
:103120005F0590913E058885892B80933E050E941E
:10313000AD22EA81FB81CE010696309729F06C8999
:103140007D89DF91CF910994DF91CF910895EF921E
:10315000FF920F931F93CF93DF93FC0122852111E0
:103160003AC0EC01E380F480F7E5FF1A26E12E9DDA
:10317000C0012F9D900D1124DC01A050BF4F14966B
:10318000ED91FC9115978A5F9E4F309729F05496E8
:103190006D917C915597099586E18E9D80018F9D5B
:1031A000100D112400501F4FF80187810E94A622A4
:1031B000F8018085809590913E05892380933E0596
:1031C0000E94AD22188219861B861E821D821092D3
:1031D000430410924204DF91CF911F910F91FF9011
:1031E000EF900895AF92BF92CF92DF92EF92FF924D
:1031F0000F931F93CF93DF937C015B01C42FD22FDA
:10320000FC0182818823F9F0409344040E940B2141
:10321000909357048093560480E28C0F883008F016
:103220006EC0C77081E001C0880FCA95EAF7DF91D0
:10323000CF911F910F91FF90EF90DF90CF90BF90B3
:10324000AF900C94781380914404481335C080915A
:103250005604909157040E94F0206C01B701C501FB
:103260000E947110C816D90638F510E21D0FCD174F
:10327000B9F080E28C0F883040F4C77081E001C063
:10328000880FCA95EAF70E948213183058F581E03A
:103290009D2F977001C0880F9A95EAF70E947813C6
:1032A000802F0E94EF17183050F5D77081E001C0D1
:1032B000880FDA95EAF70AC080E28C0F8830F8F4BC
:1032C000C77081E001C0880FCA95EAF7DF91CF91FE
:1032D0001F910F91FF90EF90DF90CF90BF90AF9034
:1032E0000C948213802FDF91CF911F910F91FF904B
:1032F000EF90DF90CF90BF90AF900C94EF17DF91DD
:10330000CF911F910F91FF90EF90DF90CF90BF90E2
:10331000AF90089580915504811112C08091D8001A
:1033200080618093D8008AE18A95F1F700C080918E
:10333000D90080FD02C082E001C081E08093550485
:1033400081E090915504913009F080E00895F8945F
:10335000E82FE295EF70F0E031A1282F2F7081E087
:1033600090E001C0880F2A95EAF7982F9095932353
:1033700091A392A1892B82A37894089590917F05BF
:1033800092FF0DC0282F2871283019F4877F8460A0
:1033900006C0282F2471243011F48B7F886093FF9E
:1033A0000DC0282F2871283119F4877E846106C04A
:1033B000282F2471243111F48B7E8861209180059F
:1033C00020FF0DC0382F3871383019F4877F8160A5
:1033D00006C0382F3171313011F48E7F886021FFA3
:1033E0000DC0282F2871283119F4877E816106C00D
:1033F000282F2171213111F48E7E886194FD877E02
:103400000895EF92FF920F931F93CF93DF938091D4
:10341000D4048823E1F110E00CE08091D404181763
:10342000A0F5E12EF12C0E9DE0010F9DD00D112491
:10343000CC58DB4F4B815C81698188810E94432499
:10344000811121C08E819F81892B51F488859985B6
:103450008F3F2FEF920721F061E00E94A2100AC077
:10346000288139814A815B816C817D818E819F8138
:103470000E9464160E9DF0010F9DF00D1124EC5872
:10348000FB4F148213821F5FC8CF1092D404DF91C8
:10349000CF911F910F91FF90EF9008952F923F923F
:1034A0004F925F926F927F928F929F92AF92BF9254
:1034B000CF92DF92EF92FF920F931F93CF93DF9300
:1034C000C0917304E7E0FE2E01E010E0FCE02F2E37
:1034D000AEEFEA2E80917204C81709F479C0D0E0EB
:1034E000FE01EE0FFF1FE859FB4F80819181F89E8E
:1034F000F001F99EF00D1124E25DFE4F24812111AF
:1035000064C06090D404A4E7B4E020E030E0712C03
:103510005F01261508F057C01A964D905C901B97D6
:10352000F501808091804FEF5FEF312CC32CD12CBF
:10353000F601EE0FFF1FE80DF91D65917491461617
:10354000570609F4A601672B11F03394EFCF4F3FD4
:10355000FFEF5F07A1F1B80102C0660F771F4A9520
:10356000E2F7762AA80102C0440F551F3A94E2F709
:1035700041505109672D70E046175707E1F4229E2C
:10358000F001239EF00D1124EC58FB4FF89ED00162
:10359000F99EB00D1124A25DBE4F12962D913C9163
:1035A000139737832683E082E1829187808771E0D9
:1035B00015967C9308C014961C921E9213972F5F49
:1035C0003F4F1C96A6CF0E9402182196C37082CF4F
:1035D0000E94011ADF91CF911F910F91FF90EF9000
:1035E000DF90CF90BF90AF909F908F907F906F9023
:1035F0005F904F903F902F900C9430182F923F92F5
:103600004F925F926F927F928F929F92AF92BF92F2
:10361000CF92DF92EF92FF920F931F93CF93DF939E
:10362000CDB7DEB76A970FB6F894DEBF0FBECDBF39
:103630006B8B7C8B8D8B142F052F4C895D89602FB4
:10364000812F0E944324811137C0212F30E081E077
:1036500090E0BC01012E01C0660F0A94EAF74B8985
:10366000802F90E0442319F04091480405C0FC01EC
:10367000E45AFB4F408146234423B1F046E0489F83
:10368000F001499FF00D1124E20FF31FEE0FFF1F11
:10369000E557FC4F10810181FC01E45AFB4F20816A
:1036A000922F962B908308C0FC01E45AFB4F862F83
:1036B00080959081892380837E0129E0E20EF11CB0
:1036C00088E0F70111928A95E9F7198B0A8B85E05A
:1036D000FE017196D70101900D928A95E1F74C8514
:1036E0005D856A8589850E9443248111D1C161E08D
:1036F000C7010E94D90F5C01883FFCE59F0739F4A0
:103700008B85882319F181E080932D01C1C1893F08
:103710002CE5920781F48B858823C1F01092D604A2
:103720001092D50410922D0180917204809373043D
:103730000E94011AADC18A3F9C4541F48B858823C4
:1037400029F080912D018823F1F2E8CF80912D019D
:10375000882309F49DC10EE211E0E12CC12CD12C8B
:103760005524539488248394912CCE0101969F8BE9
:103770008E8BF8014081518166246A94762C60E03A
:10378000262F30E0F901EE0FFF1FE40FF51F8591A2
:103790009491A816B90609F43901892B11F06F5FCD
:1037A000EFCFFFEF6F167F0609F40AC1F8012481FD
:1037B000F22EF5244B8495818681442009F4A0C023
:1037C00021119EC0911114C0940101C0220F6A946E
:1037D000EAF7822B8683809170049091710486347D
:1037E000910530F486E490E0909371048093700426
:1037F000940102C0220F331F6A95E2F7215031096C
:10380000F801868190E02817390709F0E3C080911C
:10381000D5049091D604009741F00E94F02087349F
:10382000910518F0F8015482D6C08091730420915C
:103830007204298F982FE0E0F0E0698D861709F473
:103840004BC0282F30E0F901EE0FFF1FE859FB4F66
:103850004081518167E0649FD001659FB00D1124C4
:10386000A25DBE4F3C9011962C901197188E60E08F
:1038700070E0E32DF22DE70FF11DE70FF11D6590CC
:10388000749061147104C9F0F801408041814A8F3D
:1038900060E0E42DFA8DE60FF11DE60FF11D459174
:1038A00054914115510539F06416750611F441E043
:1038B000488F6F5FEECF7F5FDCCF488D442329F0C8
:1038C000671708F47FC0FD017EC0E0E0F0E02F5FE5
:1038D0003F4F822F8370B1CF90937304E017F107AD
:1038E00009F478C090E0FC01EE0FFF1FE859FB4F90
:1038F000D182C082019683709927809372046AC036
:10390000911114C0A40102C0440F551F6A95E2F73B
:103910004150510990E04817590709F045C022234A
:1039200009F443C0C6010E9402183EC090E09C0109
:103930002150310928233923062C02C095958795FB
:103940000A94E2F7232B61F580FF2AC0F8018281F7
:103950009381892BE1F088E0EE89FF8911928A95A5
:10396000E9F78EEF89838A830E940B218160582FAB
:103970009D838C83F801828193818F83988729812D
:103980003A814B816D817E810E94641604C060E0A3
:10399000C6010E94A210F8011582FF24F39405C00D
:1039A000F82FF170FF2E01C0F12CC40101C0880F67
:1039B0006A94EAF78095F8019681892386830AC084
:1039C000412C09C0F80154820E171F0709F055C099
:1039D000909373044F2CE428FFEFCF1ADF0A095F9E
:1039E0001F4F25E2C216D10409F0C3CE8B85882370
:1039F00081F1EE2071F10E940B219093D604809307
:103A0000D5048091D404883008F04CC091E0980F20
:103A10009093D40498E0FE013996DE01119601904E
:103A20000D929A95E1F74CE0849FC00111248C58C7
:103A30009B4F28E0FE013196DC0101900D922A9502
:103A4000E1F72FEF3FEFFC0131872087B386A28695
:103A500029C09091730480917204981719F00E9404
:103A60004E1A08C00E94011A1092D6041092D50472
:103A70000E943018E11016C00BC0891328CFAE1772
:103A8000BF0709F024CFC9010196982F93701FCF6B
:103A900029853A854B855C856D857E858F859889DE
:103AA0000E9464166A960FB6F894DEBF0FBECDBFB3
:103AB000DF91CF911F910F91FF90EF90DF90CF900A
:103AC000BF90AF909F908F907F906F905F904F903E
:103AD0003F902F9008958F929F92AF92BF92CF9276
:103AE000DF92EF92FF920F931F93CF93DF93CAE27F
:103AF000D4E090E7E92E95E0F92E20E3822E24E031
:103B0000922E670110E0AA24A394B12CBE018881F3
:103B1000F894E82FE295EF70F0E021A18F70A501F5
:103B200002C0440F551F8A95E2F7CA01922F982BC5
:103B300091A392A18095892382A3789400C0E6E3A3
:103B4000F4E020E030E000E04191842F82958F7016
:103B500090E0DC0190968C9190E04F7002C09595BA
:103B600087954A95E2F780FD07C08A2D022E01C095
:103B7000880F0A94EAF701C080E0082B2F5F3F4FBF
:103B80002630310509F72196FB0180810E94A71993
:103B9000F0EAFA95F1F7D6018C91081719F00C9319
:103BA00081E001C080E0182BBFEFCB1ADB0A8C1636
:103BB0009D0609F0ABCFC0917D05112349F081E04E
:103BC000809353040E940B219093520480935104DC
:103BD000809153048823B9F080915104909152044C
:103BE0000E94F020069778F0EC2FF0E0EC57FA4FA7
:103BF00086E795E0D7012D917D0121938A179B07D8
:103C0000C9F7109253040E948A19882309F4C4C08A
:103C1000C0917C050E94AC2E892BA1F5EC2FF0E021
:103C2000EC57FA4F80E090E0DC01A05ABA4F2C919B
:103C30002193019686309105B9F70E948A1988234D
:103C400019F00E94FF200EC00E94FF20C0906C055A
:103C5000D0906D05E0906E05F0906F056C0D7D1DA8
:103C60008E1D9F1DDC01CB010296A11DB11D80930D
:103C7000660590936705A0936805B0936905109257
:103C8000540413C0809154048F5F80935404863091
:103C900060F0E0917C05F0E0EC57FA4F80E090E0B6
:103CA0001192019686309105D9F780912C018F3FB2
:103CB00061F100E086E1B82E1EC0BE9CF001BF9C01
:103CC000F00D1124E050FF4FC288D388C114D104F5
:103CD00039F460E070E0818592850E9471106C017A
:103CE000BE9CE001BF9CD00D1124C050DF4F8E81DF
:103CF000811110C00F5FE02EF12C80912C01082E55
:103D0000000C990B8E159F05C4F680912D01811131
:103D100018C06EC08D859E850E94F020C816D906F9
:103D200048F78989811103C0CE010E948618BE9C84
:103D3000C001BF9C900D11248A5F9E4F0E94A7185E
:103D4000D9CF8091D5049091D604009709F450C042
:103D50000E94F020209170043091710428173907D7
:103D600008F046C09091730480917204981759F03E
:103D70000E944E1A10927104109270041092D60490
:103D80001092D50435C00E94011A1092D6041092E8
:103D9000D5040E9430182CC0E0917D05CE2FD0E0D4
:103DA000C0906605D0906705E0906805F0906905C1
:103DB0000E948A1981110EC00E94FF20C61AD70ADC
:103DC000E80AF90AC0926C05D0926D05E0926E0582
:103DD000F0926F05FE01EC57FA4F80E090E02191E0
:103DE000DC01A05ABA4F2C93019686309105B9F7A1
:103DF000812FDF91CF911F910F91FF90EF90DF9076
:103E0000CF90BF90AF909F908F900895809149057B
:103E1000089522E02093E9002FEF3091E80021502F
:103E200035FD06C035ED3A95F1F700002111F5CFCB
:103E30002091E80025FF0BC040E050E066E070E014
:103E40000E9477248091E8008E778093E80008959F
:103E5000CF93DF9321E02093E9002FEF3091E8002A
:103E6000215035FD06C035ED3A95F1F700002111DE
:103E7000F5CF2091E80025FF14C0EC0140E050E0B0
:103E800068E070E00E9477248091E8008E7780934C
:103E9000E80088E0FE01AAE4B5E001900D928A9561
:103EA000E1F7DF91CF910895CF93DF9300D01F9278
:103EB000CDB7DEB790915405943019F589837B8393
:103EC0006A8382E08093E9008FEF9091E80081504F
:103ED00095FD06C095ED9A95F1F700008111F5CF9B
:103EE0008091E80085FF0DC040E050E063E070E0A5
:103EF000CE0101960E9477248091E8008E7780930E
:103F0000E8000F900F900F90DF91CF910895803FC0
:103F100039F48091990587FF6AC01092990567C0AE
:103F2000813F29F4809199051816BCF360C09091E7
:103F30009805823F29F497FF5AC01092980557C000
:103F4000833F19F41916CCF352C090919A05893F1A
:103F500031F419160CF04BC010929A0548C08A3FF4
:103F600019F497FF44C0F8CF8B3F39F480919B053B
:103F700087FF3DC010929B053AC08C3F29F4809189
:103F80009B051816BCF333C0843F21F4809197053C
:103F90008E7F17C0853F21F4809197058D7F11C0DA
:103FA000863F21F4809197058B7F0BC0873F21F4DA
:103FB00080919705877F05C0883F31F480919705F0
:103FC0008F7E8093970513C08D3F21F48091440527
:103FD0008E7F0BC08E3F21F4809144058D7F05C0FC
:103FE0008F3F29F4809144058B7F80934405809115
:103FF0009805811106C080919905811102C0109227
:10400000930580919A05811106C080919B058111CD
:1040100002C01092900508958091440580FD16C05D
:1040200081FD16C082FD18C080919005882391F013
:10403000883290F428E0829FC001112468E270E089
:104040000E94472F862F672B29F007C082E0089532
:1040500084E0089581E0089588E008958091440502
:1040600080FD17C081FD17C082FD19C080919305A6
:10407000882399F0883298F423E2829FC0011124AA
:1040800068E270E00E94472F862F672B49F481E099
:10409000089588E0089581E1089585E0089583E218
:1040A0000895803F21F40E942E20819504C0813F15
:1040B00029F40E942E20809399050895823F21F4CF
:1040C0000E942E20819504C0833F29F40E942E2057
:1040D000809398050895893F19F40E940C2005C02B
:1040E0008A3F31F40E940C20819580939A050895AF
:1040F0008B3F21F40E940C20819504C08C3F29F451
:104100000E940C2080939B050895843F21F48091A8
:104110009705816017C0853F21F4809197058260E3
:1041200011C0863F21F48091970584600BC0873FC2
:1041300021F480919705886005C0883F31F4809113
:10414000970580618093970508958D3F21F48091B4
:10415000440581600BC08E3F21F48091440582604C
:1041600005C08F3F29F48091440584608093440505
:10417000089587E797E790930108809300089AE0F5
:1041800088E10FB6F894A895809360000FBE9093D5
:104190006000FFCF78941F920F920FB60F921124F8
:1041A0008F939F93AF93BF9380914005909141056A
:1041B000A0914205B09143050196A11DB11D8093C8
:1041C000400590934105A0934205B0934305BF91EC
:1041D000AF919F918F910F900FBE0F901F901895E8
:1041E0009C014FB7F8948091400590914105A091B2
:1041F0004205B09143054FBF821B930B08952FB723
:10420000F89460914005709141058091420590912C
:1042100043052FBF08952FB7F894809140059091E2
:104220004105A0914205B09143052FBF08958091AB
:104230009D0583FF7EC088E597E00E940C05809174
:1042400097051F928F9383E597E09F938F930E942A
:10425000A50581E597E00E940C0580919805282F1F
:10426000082E000C330B3F938F938EE497E09F93BF
:104270008F930E94A5058CE497E00E940C05809125
:104280009905282F082E000C330B3F938F9389E458
:1042900097E09F938F930E94A50587E497E00E9483
:1042A0000C0580919A05282F082E000C330B3F93A4
:1042B0008F9384E497E09F938F930E94A50582E4F7
:1042C00097E00E940C0580919B05282F082E000C7A
:1042D000330B3F938F938FE397E09F938F930E94CD
:1042E000A5058CE397E00E940C05809193051F9231
:1042F0008F9389E397E09F938F930E94A50587E3AF
:1043000097E00E940C05809144051F928F9384E3EF
:1043100097E09F938F930E94A50581E397E00E9409
:104320000C058DB79EB74C960FB6F8949EBF0FBE86
:104330008DBF0E940B2120919805211104C020916E
:104340009905222321F0909395058093940520915F
:104350009A05211104C020919B05222321F09093FE
:10436000920580939105E0918105F0918205309747
:1043700049F082E0809396050480F581E02D86E97E
:1043800095E0099408951F920F920FB60F92112491
:104390008F939F93AF93BF9380918305811113C037
:1043A0008091400590914105A0914205B09143054F
:1043B0004196A11DB11D8093400590934105A093A6
:1043C0004205B0934305BF91AF919F918F910F909C
:1043D0000FBE0F901F9018959C012A5F3F4FFC0164
:1043E0004281461301C01282019682179307B9F7E2
:1043F00008959C01FC0132969FEF80E041914617A1
:1044000089F09F3F19F4411101C0982F8F5F8630CA
:10441000A9F79F3F39F0F901E90FF11D97FDFA95D2
:10442000628308950895CF9384E090E00E94F92E6E
:10443000C82F81E290E00E94F92E2C2F30E0A901D4
:10444000582BCA01CF9108956CEE7EEF80E090E08A
:104450000E94252F60E082E090E00E94072F60E03C
:1044600083E090E00E94072F10923F0560E084E017
:1044700090E00E94072F60E081E290E00E94072F09
:1044800060E085E090E00E94072F60E086E090E029
:104490000E94072F6FEF87E090E00E94072F40E017
:1044A00050E0BA0188E090E00E94192F60E08DE0B2
:1044B00090E00E94072F40E050E0BA0188E190E0D0
:1044C0000E94192F60E087E190E00E94072F40E0F2
:1044D00050E0BA018CE190E00E94192F60E080E288
:1044E00090E00E94072F40E050E0BA0188E190E0A0
:1044F0000E94192F40E050E0BA018FE090E00E9446
:10450000192F40E050E0BA0183E190E00C94192F9C
:104510008295982F937344E0949F900111248C7C92
:1045200086958695282B822F8575880F2A7A269561
:10453000822B089580915E05811110925E05089589
:1045400090915E05981380935E05089580959091F3
:104550005F05892380935F050895EF92FF920F9383
:104560001F93CF9390915F0580913E05892B2091F9
:104570003D05982F922B9093D70480915E05882358
:1045800089F0892B8093D704E9EDF4E097E080E08F
:10459000915029F021912223D9F38F5FF9CF811116
:1045A0000E949A22E0918105F09182053097C9F12D
:1045B0000280F381E02D87ED94E0099580919D05BF
:1045C00082FF2FC080FF04C08FE197E00E940C059E
:1045D00007ED14E0C8E089E1E82E87E0F82E80912D
:1045E0009D0580FF0CC0F80180811F928F93FF9280
:1045F000EF920E94A5050F900F900F900F90C15061
:104600000F5F1F4FC111EBCF80919D0580FF09C047
:1046100087E197E0CF911F910F91FF90EF900C945D
:104620000C05CF911F910F91FF90EF9008958F92FD
:104630009F92AF92BF92DF92EF92FF920F931F93E0
:10464000CF93DF9380907E0520913F05822AC7E0BB
:10465000D0E0912CA12CB12C26E0929F7001112466
:1046600098E4D92E082F10E0D501C4010C2E04C007
:10467000B695A795979587950A94D2F780FD04C0C3
:10468000219790F780E014C0DC9EF001DD9EF00DD4
:104690001124EE0DFF1DE00FF11FEE0FFF1FE95D6E
:1046A000FC4F859194910E947D0D019749F38C2FC9
:1046B000DF91CF911F910F91FF90EF90DF90BF900E
:1046C000AF909F908F900895CF93DF93EC010E945D
:1046D000172328E4829FC0011124FC0126E0D29F09
:1046E000E00DF11D1124EC0FF11DEE0FFF1FE95D30
:1046F000FC4F859194910E947D0DDF91CF9108959B
:10470000292F220F920F990F890F682F66956695B2
:104710006695982F977083E0689FB001112440E060
:1047200050E080E0FB01E40FF51FEF5DFA4F2081C0
:1047300030E0092E02C0369527950A94E2F72170E1
:104740003327042E01C0220F0A94EAF7822B4F5F11
:104750005F4F4330510531F70895292F220F920FF3
:10476000990F890FE82FE695E695E695877051E059
:1047700001C0550F8A95EAF783E0E89FF001112404
:10478000EF5DFA4F20E030E070E04081CB01022E77
:1047900002C0969587950A94E2F7817081958427E7
:1047A0008523842781932F5F3F4F2330310569F79D
:1047B000089580937E050C943C1641E050E060E043
:1047C00070E004C0440F551F661F771F8A95D2F70B
:1047D000409580917E0584230C94D92320913C053B
:1047E0008095822380933C05982F977079F430E070
:1047F000482F082E000C550B2417350739F08595E6
:10480000859585950E94DD2310923C0508950F93B0
:104810001F9341E050E060E070E08A019B0104C01A
:10482000000F111F221F331F8A95D2F7D901C8012B
:1048300020917E05822B1F910F910C94D923809398
:104840003F050C943C16209120059091DF04291718
:10485000B1F030E0F90153E0EE0FFF1F5A95E1F798
:10486000E052FB4F5181561306C05081581303C0CC
:104870005281541306C02F5F3F4F2770E8CF80E06E
:10488000089581E00895452B41F06F3F41F491E098
:104890008F3F09F090E0892F03C081E001C080E0E4
:1048A000817008950F931F93CF93442399F0322F73
:1048B000327259F0C22F8B0182E20E948213C8012A
:1048C0000E947E0FC0935F0505C0CF911F910F918D
:1048D0000C947E0FCF911F910F91089580915E05EA
:1048E000982F927219F08D7D80935E050895EF9256
:1048F000FF920F931F93CF93DF937C018B010E9454
:10490000CA29811119C0E70101151105A1F0809193
:10491000E80085FD0AC08091E8008E778093E8006A
:104920000E94CA29882381F307C089918093F100EE
:1049300001501109E9CF80E0DF91CF911F910F91D4
:10494000FF90EF9008951F93CF93DF93CDB7DEB71D
:10495000AA970FB6F894DEBF0FBECDBFE6E5F5E02F
:104960008EE595E02091F10021938E179F07D1F7F6
:1049700080915705833009F460C030F4813071F0C4
:10498000823009F49AC0B1C08A3009F486C08B30F5
:1049900009F46BC0893009F0A8C020C08091560589
:1049A000813A09F0A2C08091E800877F8093E800F7
:1049B00080915A0590915B05892B21F468E08AE487
:1049C00095E003C060E080E090E070E00E94512A32
:1049D0008091E8008B778093E80087C0809156052E
:1049E000813209F082C080915A0590915B0502974F
:1049F00008F07BC08091E800877F8093E800809179
:104A0000E80082FD05C0809154058111F8CF6DC08A
:104A10002091F3008091F20090E0922B029729F40C
:104A20008091F1008B7F813021F48091F10080939F
:104A300049058091E8008B7754C080915605813AF2
:104A400009F053C080915A0590915B05892B09F0BC
:104A50004CC08091E800877F8093E8008091E80057
:104A600080FFFCCF8091310237C0809156058132A2
:104A7000E1F580915A0590915B05892BB1F5809104
:104A8000E800877F8093E8000E94FD298091580507
:104A9000809331020E94591628C0809156058132B8
:104AA00021F58091E800877F8093E8000E94FD292E
:104AB000809159058093480518C080915605813A28
:104AC000A1F48091E800877F8093E8008091E8005E
:104AD00080FFFCCF809148058093F1008091E80031
:104AE0008E778093E8000E94FD298091E80083FF83
:104AF000D7C18091560590915705492F50E04A3013
:104B0000510508F0CDC1FA01E456FF4F0C945B2F1C
:104B1000803821F0823809F0C3C108C08091520565
:104B200090915305992389F082600FC080915A05B6
:104B30008F70873008F0B4C18093E9008091EB005A
:104B400085FB882780F91092E9009091E800977F13
:104B50009093E8008093F1001092F1006FC1282F2C
:104B60002D7F09F09DC1882319F0823061F098C132
:104B700080915805813009F093C1933009F080E0AD
:104B8000809353052EC08091580581112AC08091D1
:104B90005A058F702FEF280F263008F081C18093BF
:104BA000E9002091EB0020FF1CC0933021F480919C
:104BB000EB00806214C09091EB0090619093EB0049
:104BC00021E030E0A90102C0440F551F8A95E2F7A9
:104BD0004093EA001092EA008091EB008860809395
:104BE000EB001092E9008091E800877F8093E80055
:104BF0000E94FD2955C1811153C1109158051F779D
:104C00008091E3008078812B8093E3008091E8001D
:104C1000877F8093E8000E94FD298091E80080FF53
:104C2000FCCF8091E30080688093E300111102C003
:104C300082E001C083E08093540532C18058823005
:104C400008F02EC120915805309159052C3D53E0B4
:104C5000350779F583E08A838AE289834FB7F89430
:104C6000DE01139620E03EE051E2E32FF0E05093A6
:104C70005700E49120FF03C0E295EF703F5FEF70B3
:104C80008E2F90E0EA3010F0C79601C0C0968D9349
:104C90009D932F5F243149F74FBF8091E800877FB4
:104CA0008093E8006AE270E0CE0101960E94512AEA
:104CB000B4C080915A0590915B05432F552743302E
:104CC0005105A9F068F44130510509F4F8C04230AB
:104CD000510509F0E5C08BE590E0E2E7F8E04BC054
:104CE0004132510529F14232510589F1D9C0C9013A
:104CF000992781309105A1F058F0029709F0D0C0B2
:104D0000EFEDF8E0E4918E2F90E0EFEDF8E030C0A9
:104D1000EDE1F9E0E4918E2F90E0EDE1F9E028C0BB
:104D2000EDE0F9E0E4918E2F90E0EDE0F9E020C0B5
:104D30008330910508F0B4C0880F991FFC01EC5D29
:104D4000FB4F0190F081E02D89E090E014C08330AA
:104D5000910508F0A5C0FC01EE0FFF1FE25EFB4FBE
:104D60000190F081E02DDC01A55EBB4F8C9190E0BD
:104D7000009709F495C02091E800277F2093E80070
:104D800020915C0530915D052817390708F4C901A9
:104D900040E0009789F120915405222309F43DC099
:104DA0002530D9F12091E80023FD37C02091E8009B
:104DB00022FD2FC02091E80020FFEBCF4091F300AF
:104DC0002091F20030E0342B009759F02830310563
:104DD00040F444914093F100319601972F5F3F4F8B
:104DE000F3CF41E02830310509F040E02091E800A0
:104DF0002E772093E800CDCF4111CDCF0AC080910E
:104E00005405882351F0853041F08091E80083FDFE
:104E100004C08091E80082FFF2CF8091E8008B7798
:104E20008093E8003DC08038D9F58091E800877F05
:104E30008093E800809155058093F1008091E8000F
:104E40008E77D4CE81112CC0809158059091590550
:104E5000992702972CF58091E800877F8093E800DE
:104E600010915805109355050E94FD29111106C097
:104E70008091E30087FD02C081E001C084E080935F
:104E8000540542E061EC81E00E941C2A42E261ECA0
:104E900082E00E941C2A42E261EC83E00E941C2A0C
:104EA0008091E80083FF10C08091E800877F8093A5
:104EB000E8008091EB0080628093EB0005C082E106
:104EC00090E0EDECF8E057CFAA960FB6F894DEBF6D
:104ED0000FBECDBFDF91CF911F9108951F920F920A
:104EE0000FB60F9211242F933F934F935F936F93BD
:104EF0007F938F939F93AF93BF93CF93DF93EF9362
:104F0000FF93C091E900CF708091EC00D82FD17051
:104F100080FDD0E81092E9008091F000877F8093B7
:104F2000F00078940E94A3241092E9008091F00090
:104F300088608093F000CD2BCF70C093E900FF9183
:104F4000EF91DF91CF91BF91AF919F918F917F9121
:104F50006F915F914F913F912F910F900FBE0F90E6
:104F60001F901895E8EDF0E080818E7F808310928D
:104F7000E2001092DA001092E100A0EEB0E08C9115
:104F800081608C9380818F77808319BCA7EDB0E01E
:104F90008C918E7F8C9380818F7E808310924705C9
:104FA0000895CF92DF92EF92FF920F931F93CF93CA
:104FB000DF93C8EDD0E088818F7E8883E7EDF0E055
:104FC00080818160808384E082BF81E08093470597
:104FD00088818E7F888302EE10E0F80110821092A3
:104FE000DA0081EEC82ED12CF601108288818F77ED
:104FF000888388818068888388818F7D888319BCB5
:1050000010925405109255051092530510925205B6
:1050100090EEE92EF12CF70180818B7F80838881CF
:105020008160888342E060E080E00E941C2AF601F3
:1050300080818E7F8083F801808181608083808180
:1050400088608083F70180818E7F80838881806182
:105050008883DF91CF911F910F91FF90EF90DF90A8
:10506000CF9008951F920F920FB60F9211242F9395
:105070003F934F935F936F937F938F939F93AF93E0
:10508000BF93EF93FF938091E10082FF49C080912D
:10509000E20082FF45C08091E1008B7F8093E100B8
:1050A000209146052F5F822F62E30E943B2F9923B8
:1050B00019F02093460534C01092460580914505AD
:1050C000882371F180915405843041F58091E90085
:1050D0008F702091EC00922F917020FD90E8892B29
:1050E00093E09093E9009091EB0090FF14C09091B1
:1050F000EE0097FF10C09091E80095FF03C010925A
:10510000F100F9CF9091E80090FF05C09091E80080
:105110009E779093E8008F708093E9001092450588
:105120008091DA0080FF32C08091D80080FF2EC0CD
:105130008091DA008E7F8093DA008091D90080FF21
:105140001CC080E189BD82E189BD09B400FEFDCFAC
:1051500081E0809354058EE598E00E940C058091D3
:105160004705811113C00E94B2270E94D127809168
:10517000E20084608093E20009C019BC10925405DB
:1051800082E698E00E940C05109247058091E100AC
:1051900080FF1BC08091E20080FF17C08091E20079
:1051A0008E7F8093E2008091E20080618093E20034
:1051B0008091D80080628093D80019BC85E08093EC
:1051C000540586E698E00E940C058091E10084FF7A
:1051D00036C08091E20084FF32C080E189BD82E167
:1051E00089BD09B400FEFDCF8091D8008F7D8093EA
:1051F000D8008091E1008F7E8093E1008091E200F1
:105200008F7E8093E2008091E20081608093E200D3
:1052100080915505882311F084E007C08091E30058
:1052200087FD02C081E001C083E0809354058AE6D7
:1052300098E00E940C050E9459160E947A188091ED
:10524000E10083FF2BC08091E20083FF27C08091A3
:10525000E100877F8093E10082E080935405109203
:1052600055058091E1008E7F8093E1008091E200FE
:105270008E7F8093E2008091E20080618093E20063
:1052800042E060E080E00E941C2A8091F00088608B
:105290008093F0008EE698E00E940C05FF91EF915C
:1052A000BF91AF919F918F917F916F915F914F913E
:1052B0003F912F910F900FBE0F901F9018959FB7A1
:1052C000F894109245059FBF90915405943009F0D1
:1052D00057C09091E9009F703091EC00232F21700E
:1052E00030FD20E8922B23E02093E9002091EB0091
:1052F00020FF43C02091EE0027FF3FC020916B05A7
:10530000222321F02091E80025FF37C010926B0581
:1053100026E03091E80035FD15C030915405343059
:1053200061F53091EB0035FD28C0215021F481E07A
:1053300080936B0522C0EFE9FFE03197F1F700C0E1
:105340000000E7CF8093F1008091E80085FD0AC05E
:105350008091E80080FFFCCF8091E8008E778093F9
:10536000E80006C08FB7F89421E0209345058FBF71
:105370009F709093E90080E008959F709093E900FA
:105380008FEF0895BC0184E00C94541FBC0183E0AE
:105390000C94541F2091E4003091E50095E6409173
:1053A000EC00842F817040FF23C08091E80080FDD5
:1053B0001DC080915405882399F0853099F0809123
:1053C000EB0085FD11C04091E4005091E5002417E9
:1053D000350729F3915011F09A01E1CF84E0089547
:1053E00082E0089583E0089581E0089580E00895C3
:1053F0004091E80042FFDDCF08958091560587FF78
:1054000011C08091E80082FD05C080915405811192
:10541000F8CF11C08091E8008B770BC080915405C4
:10542000882349F08091E80080FFF8CF8091E80060
:105430008E778093E8000895982F973068F59093C1
:10544000E900981739F07091EC002091ED0050912F
:10545000F00003C0242F762F50E021FD02C09F5F93
:10546000ECCF3091EB003E7F3093EB003091ED00BC
:105470003D7F3093ED003091EB0031603093EB00D5
:105480007093EC002093ED005093F0002091EE001B
:1054900027FDE5CF80E008958F708093E90081E0DB
:1054A000089520915C0530915D052617370748F077
:1054B0006115710539F42091E8002E772093E800FA
:1054C00001C0B901FC0120E06115710579F18091FD
:1054D00054058823F1F18530F1F18091E80083FDD6
:1054E0003CC08091E80082FD2EC08091E80080FFE2
:1054F000EBCF2091F3008091F20090E0922B6115A8
:10550000710551F08830910538F421912093F10014
:10551000615071090196F3CF21E0089709F020E06E
:105520008091E8008E778093E800CECF2111CFCF15
:105530000AC080915405882361F0853061F0809124
:10554000E80083FD0AC08091E80082FFF2CF80E08E
:10555000089582E0089583E0089581E00895CF934F
:10556000DF93CDB7DEB762970FB6F894DEBF0FBEFC
:10557000CDBF84B7877F84BF0FB6F894A89580917C
:105580006000886180936000109260000FBE90E020
:1055900080E80FB6F89480936100909361000FBE8D
:1055A00085B7806885BF85B7806885BF0E94B227B0
:1055B0000E94D1278091E20084608093E2008FE511
:1055C00099E290933D0480933C0478948091540533
:1055D0008823A1F01091E9001F709091EC00892FB1
:1055E000817090FD80E8182B1092E9008091E8000E
:1055F00083FD0E94A3241F701093E90082E084BD04
:1056000093E095BD9AEF97BD80936E0010926C0564
:1056100010926D0510926E0510926F050E948A1906
:1056200080933A020E948A19882331F061E070E089
:1056300082E392E00E940D2E80913A0280913A021C
:10564000811102C096E001C090E090937D0586E054
:10565000891B80937C050AE214E0F80181918F0197
:105660000E94A719F4E000331F07B9F706E314E01E
:105670005CE3E52E54E0F52EF80181918F010E9444
:10568000A719E016F106C1F7E0E7F5E08CE795E031
:10569000A4E8B5E011921D928E179F07D9F70E94DA
:1056A0006B1D8FE39CE90197F1F700C000000E9499
:1056B0006B1D0E948A19811103C025E0E6E002C03B
:1056C00020E0E0E0F0E0EC57FA4F808190E002C08B
:1056D000959587952A95E2F780FF08C06FEF7FEFD9
:1056E00080E090E00E94252F0E94B92080E090E0A9
:1056F0000E94012F8C3E9E4F11F00E9424220E9496
:105700008A19811106C061E070E082E392E00E9494
:10571000142E80E090E00E94012F8C3E9E4F11F0ED
:105720000E94242282E090E00E94F92E80939D0541
:105730000E9413229093800580937F0583E090E080
:105740000E94F92E0E941F248BE392E09093820521
:10575000809381058DE599E00E940C0533243394F4
:1057600033E2432E39E0532E48E1642E712C8091B0
:105770005405853009F03BC089E599E00E940C058D
:1057800080915405843011F11092830580E40FB6A6
:10579000F894A895609260000FBE8093600083B774
:1057A000817F846083BF83B7816083BF789488954D
:1057B00083B78E7F83BF0FB6F894A8958091600061
:1057C000886180936000109260000FBE8091530545
:1057D000882309F4CCCF0E946B1DE4E8F5E08191A9
:1057E0008111A1C125E0E039F207C9F7C0CF0E94BD
:1057F0006B1D0E948A19811111C03FEF3C873D87C4
:105800001E860E940B218160782F988B8F874C8594
:105810005D856E8588890E94FE1A77C09EE9C92E33
:1058200095E0D92E24E8A22E25E0B22E00E010E06B
:105830000A8BF50121905F01F60181916F018225AC
:10584000898B811106C00F5F1F4F0C30110581F746
:10585000D4CF80919D0581FD04C080E0FF24F394A6
:1058600037C080E399E00E940C0584E8882E85E02B
:10587000982EE12CF12CFF92EF922BE239E03F932E
:105880002F930E94A50588E299E00E940C05F4017F
:1058900081914F010E9488221F928F935F924F92B5
:1058A0000E94A50581E299E00E940C05FFEFEF1A26
:1058B000FF0A0FB6F894DEBF0FBECDBF3CE0E31683
:1058C000F104C9F6CACF8F5FFF0C863009F4BBCF55
:1058D00099899F21C1F38F834A8948872F2081E0CE
:1058E00009F480E089870E940B218160782F9B87D3
:1058F0008A874F81588569858B850E94FE1AF80139
:10590000E256FA4F8081F826F08286E0E6E9F5E07B
:10591000DE01119601900D928A95E1F7E0909805CD
:10592000F090990500919A0510919B0510929805A9
:105930001092990510929A0510929B05E11003C0F0
:10594000FF2009F44FC080919405909195050E9425
:10595000F0209C0190919305992309F4FAC021311C
:10596000310508F43FC09F3F19F09F5F9093930566
:10597000EE2061F00E942E201E1414F09FEF01C053
:1059800091E0899F802D112480939805FF2061F07C
:105990000E942E201F1414F09FEF01C091E0899FF8
:1059A000802D112480939905309198053323D1F0EF
:1059B000209199052223B1F045EB3403C001112455
:1059C000992319F09093980502C03092980535EB11
:1059D0002303C0011124992319F09093990502C063
:1059E00030929905011103C0112309F44FC0809131
:1059F0009105909192050E94F0209C019091900554
:105A0000992309F4ABC02536310508F43FC09F3F08
:105A100019F09F5F90939005002361F00E940C2085
:105A2000101614F09FEF01C091E0899F802D112482
:105A300080939A05112361F00E940C20111614F036
:105A40009FEF01C091E0899F802D112480939B05D9
:105A500030919A053323D1F020919B052223B1F098
:105A600045EB3403C0011124992319F090939A0552
:105A700002C030929A0535EB2303C001112499230B
:105A800019F090939B0502C030929B058091980578
:105A900081110BC080919905811107C080919A05F1
:105AA000811103C080919B0581110E941721EB8217
:105AB000FC820D831E8386E0FE013196A6E9B5E0E7
:105AC00001900D928A95E1F70E947A1890919C05B9
:105AD000891709F44CCE0E947A18182F80939C05E0
